{
    "abi": [
        {
            "inputs": [
                {
                    "internalType": "address",
                    "name": "_usdl",
                    "type": "address"
                },
                {
                    "internalType": "address",
                    "name": "_weth",
                    "type": "address"
                }
            ],
            "stateMutability": "nonpayable",
            "type": "constructor"
        },
        {
            "anonymous": false,
            "inputs": [
                {
                    "indexed": false,
                    "internalType": "address",
                    "name": "",
                    "type": "address"
                },
                {
                    "indexed": false,
                    "internalType": "uint8",
                    "name": "",
                    "type": "uint8"
                }
            ],
            "name": "NewCollateralToDEXIndex",
            "type": "event"
        },
        {
            "anonymous": false,
            "inputs": [
                {
                    "indexed": false,
                    "internalType": "uint256",
                    "name": "",
                    "type": "uint256"
                }
            ],
            "name": "NewLemmaSwapFees",
            "type": "event"
        },
        {
            "anonymous": false,
            "inputs": [
                {
                    "indexed": false,
                    "internalType": "address",
                    "name": "",
                    "type": "address"
                }
            ],
            "name": "NewOwner",
            "type": "event"
        },
        {
            "anonymous": false,
            "inputs": [
                {
                    "indexed": false,
                    "internalType": "address",
                    "name": "",
                    "type": "address"
                }
            ],
            "name": "NewUSDL",
            "type": "event"
        },
        {
            "anonymous": false,
            "inputs": [
                {
                    "indexed": false,
                    "internalType": "address",
                    "name": "",
                    "type": "address"
                }
            ],
            "name": "NewWETH",
            "type": "event"
        },
        {
            "stateMutability": "payable",
            "type": "fallback"
        },
        {
            "inputs": [
                {
                    "internalType": "address",
                    "name": "",
                    "type": "address"
                }
            ],
            "name": "collateralToDexIndex",
            "outputs": [
                {
                    "internalType": "uint8",
                    "name": "",
                    "type": "uint8"
                }
            ],
            "stateMutability": "view",
            "type": "function"
        },
        {
            "inputs": [
                {
                    "internalType": "address",
                    "name": "token",
                    "type": "address"
                },
                {
                    "internalType": "uint256",
                    "name": "amount",
                    "type": "uint256"
                }
            ],
            "name": "getAdjustedOutputAmount",
            "outputs": [
                {
                    "internalType": "uint256",
                    "name": "",
                    "type": "uint256"
                }
            ],
            "stateMutability": "view",
            "type": "function"
        },
        {
            "inputs": [
                {
                    "internalType": "address",
                    "name": "token",
                    "type": "address"
                }
            ],
            "name": "getMaxOutput",
            "outputs": [
                {
                    "internalType": "int256",
                    "name": "",
                    "type": "int256"
                }
            ],
            "stateMutability": "view",
            "type": "function"
        },
        {
            "inputs": [],
            "name": "getProtocolFeesCoeffTokenIn",
            "outputs": [
                {
                    "internalType": "uint256",
                    "name": "",
                    "type": "uint256"
                }
            ],
            "stateMutability": "view",
            "type": "function"
        },
        {
            "inputs": [],
            "name": "getProtocolFeesCoeffTokenOut",
            "outputs": [
                {
                    "internalType": "uint256",
                    "name": "",
                    "type": "uint256"
                }
            ],
            "stateMutability": "view",
            "type": "function"
        },
        {
            "inputs": [
                {
                    "internalType": "address",
                    "name": "token",
                    "type": "address"
                },
                {
                    "internalType": "uint256",
                    "name": "amount",
                    "type": "uint256"
                }
            ],
            "name": "getProtocolFeesTokenIn",
            "outputs": [
                {
                    "internalType": "uint256",
                    "name": "",
                    "type": "uint256"
                }
            ],
            "stateMutability": "view",
            "type": "function"
        },
        {
            "inputs": [
                {
                    "internalType": "address",
                    "name": "token",
                    "type": "address"
                },
                {
                    "internalType": "uint256",
                    "name": "amount",
                    "type": "uint256"
                }
            ],
            "name": "getProtocolFeesTokenOut",
            "outputs": [
                {
                    "internalType": "uint256",
                    "name": "",
                    "type": "uint256"
                }
            ],
            "stateMutability": "view",
            "type": "function"
        },
        {
            "inputs": [],
            "name": "lemmaRouter",
            "outputs": [
                {
                    "internalType": "contract ILemmaRouter",
                    "name": "",
                    "type": "address"
                }
            ],
            "stateMutability": "view",
            "type": "function"
        },
        {
            "inputs": [],
            "name": "lemmaSwapFees",
            "outputs": [
                {
                    "internalType": "uint256",
                    "name": "",
                    "type": "uint256"
                }
            ],
            "stateMutability": "view",
            "type": "function"
        },
        {
            "inputs": [],
            "name": "owner",
            "outputs": [
                {
                    "internalType": "address",
                    "name": "",
                    "type": "address"
                }
            ],
            "stateMutability": "view",
            "type": "function"
        },
        {
            "inputs": [
                {
                    "internalType": "address",
                    "name": "collateral",
                    "type": "address"
                },
                {
                    "internalType": "uint8",
                    "name": "dexIndex",
                    "type": "uint8"
                }
            ],
            "name": "setCollateralToDexIndex",
            "outputs": [],
            "stateMutability": "nonpayable",
            "type": "function"
        },
        {
            "inputs": [
                {
                    "internalType": "uint256",
                    "name": "_fees",
                    "type": "uint256"
                }
            ],
            "name": "setLemmaSwapFees",
            "outputs": [],
            "stateMutability": "nonpayable",
            "type": "function"
        },
        {
            "inputs": [
                {
                    "internalType": "address",
                    "name": "_owner",
                    "type": "address"
                }
            ],
            "name": "setOwner",
            "outputs": [],
            "stateMutability": "nonpayable",
            "type": "function"
        },
        {
            "inputs": [
                {
                    "internalType": "address",
                    "name": "_usdl",
                    "type": "address"
                }
            ],
            "name": "setUSDL",
            "outputs": [],
            "stateMutability": "nonpayable",
            "type": "function"
        },
        {
            "inputs": [
                {
                    "internalType": "address",
                    "name": "_weth",
                    "type": "address"
                }
            ],
            "name": "setWETH",
            "outputs": [],
            "stateMutability": "nonpayable",
            "type": "function"
        },
        {
            "inputs": [
                {
                    "internalType": "uint256",
                    "name": "amountOutMin",
                    "type": "uint256"
                },
                {
                    "internalType": "address[]",
                    "name": "path",
                    "type": "address[]"
                },
                {
                    "internalType": "address",
                    "name": "to",
                    "type": "address"
                },
                {
                    "internalType": "uint256",
                    "name": "deadline",
                    "type": "uint256"
                }
            ],
            "name": "swapExactETHForTokens",
            "outputs": [
                {
                    "internalType": "uint256[]",
                    "name": "amounts",
                    "type": "uint256[]"
                }
            ],
            "stateMutability": "payable",
            "type": "function"
        },
        {
            "inputs": [
                {
                    "internalType": "uint256",
                    "name": "amountIn",
                    "type": "uint256"
                },
                {
                    "internalType": "uint256",
                    "name": "amountOutMin",
                    "type": "uint256"
                },
                {
                    "internalType": "address[]",
                    "name": "path",
                    "type": "address[]"
                },
                {
                    "internalType": "address",
                    "name": "to",
                    "type": "address"
                },
                {
                    "internalType": "uint256",
                    "name": "deadline",
                    "type": "uint256"
                }
            ],
            "name": "swapExactTokensForETH",
            "outputs": [
                {
                    "internalType": "uint256[]",
                    "name": "amounts",
                    "type": "uint256[]"
                }
            ],
            "stateMutability": "nonpayable",
            "type": "function"
        },
        {
            "inputs": [
                {
                    "internalType": "uint256",
                    "name": "amountIn",
                    "type": "uint256"
                },
                {
                    "internalType": "uint256",
                    "name": "amountOutMin",
                    "type": "uint256"
                },
                {
                    "internalType": "address[]",
                    "name": "path",
                    "type": "address[]"
                },
                {
                    "internalType": "address",
                    "name": "to",
                    "type": "address"
                },
                {
                    "internalType": "uint256",
                    "name": "deadline",
                    "type": "uint256"
                }
            ],
            "name": "swapExactTokensForTokens",
            "outputs": [
                {
                    "internalType": "uint256[]",
                    "name": "amounts",
                    "type": "uint256[]"
                }
            ],
            "stateMutability": "nonpayable",
            "type": "function"
        },
        {
            "inputs": [],
            "name": "usdl",
            "outputs": [
                {
                    "internalType": "contract IUSDLSwapSubset",
                    "name": "",
                    "type": "address"
                }
            ],
            "stateMutability": "view",
            "type": "function"
        },
        {
            "inputs": [],
            "name": "weth",
            "outputs": [
                {
                    "internalType": "contract IWETH10",
                    "name": "",
                    "type": "address"
                }
            ],
            "stateMutability": "view",
            "type": "function"
        },
        {
            "stateMutability": "payable",
            "type": "receive"
        }
    ],
    "bytecode": {
        "object": "0x60806040523480156200001157600080fd5b5060405162001ebe38038062001ebe833981016040819052620000349162000094565b600080546001600160a01b03199081163317909155600380546001600160a01b03948516908316179055600580549290931691161790556103e8600455620000cb565b80516001600160a01b03811681146200008f57600080fd5b919050565b60008060408385031215620000a7578182fd5b620000b28362000077565b9150620000c26020840162000077565b90509250929050565b611de380620000db6000396000f3fe6080604052600436106101235760003560e01c80635b769f3c116100a05780638da5cb5b116100645780638da5cb5b146102db578063ad7bb9dd146102f0578063b3b54d7514610305578063b3d8516714610325578063f073658a146103455761012a565b80635b769f3c146102665780636a12ccbf146102865780636ff8e4f81461029b578063708733741461014c5780637ff36ab5146102c85761012a565b80632c05316a116100e75780632c05316a146101c45780632f309177146101e457806338ed1739146102045780633fc8cef314610224578063498be97d146102465761012a565b806313af40351461012c57806313ea02dd1461014c57806318cbafe5146101775780631d3b13cb146101a457806325a1fe6a146101a45761012a565b3661012a57005b005b34801561013857600080fd5b5061012a610147366004611917565b61035a565b34801561015857600080fd5b5061016161040f565b60405161016e9190611bbb565b60405180910390f35b34801561018357600080fd5b50610197610192366004611a73565b610423565b60405161016e9190611b77565b3480156101b057600080fd5b506101616101bf366004611956565b6105d4565b3480156101d057600080fd5b5061012a6101df3660046119f6565b6105f3565b3480156101f057600080fd5b506101616101ff366004611917565b6106ac565b34801561021057600080fd5b5061019761021f366004611a73565b610764565b34801561023057600080fd5b5061023961081b565b60405161016e9190611ae4565b34801561025257600080fd5b5061012a610261366004611981565b61082a565b34801561027257600080fd5b5061012a610281366004611917565b6108e2565b34801561029257600080fd5b50610239610983565b3480156102a757600080fd5b506102bb6102b6366004611917565b610992565b60405161016e9190611d87565b6101976102d6366004611a0e565b6109a7565b3480156102e757600080fd5b50610239610a1e565b3480156102fc57600080fd5b50610161610a2d565b34801561031157600080fd5b50610161610320366004611956565b610a33565b34801561033157600080fd5b5061012a610340366004611917565b610ae8565b34801561035157600080fd5b50610239610b89565b6000546001600160a01b0316331461038d5760405162461bcd60e51b815260040161038490611d2f565b60405180910390fd5b6001600160a01b0381166103b35760405162461bcd60e51b815260040161038490611bc4565b600080546001600160a01b0319166001600160a01b0383811691909117918290556040517f3edd90e7770f06fafde38004653b33870066c33bfc923ff6102acd601f85dfbc92610404921690611ae4565b60405180910390a150565b600060026004548161041d57fe5b04905090565b6060600184146104455760405162461bcd60e51b815260040161038490611cc3565b604080516001808252818301909252600091602080830190803683370190505090506104a28686600081811061047757fe5b905060200201602081019061048c9190611917565b6005548a906001600160a01b03168a3330610b98565b816000815181106104af57fe5b60209081029190910101526005546040516370a0823160e01b81526000916001600160a01b0316906370a08231906104eb903090600401611ae4565b60206040518083038186803b15801561050357600080fd5b505afa158015610517573d6000803e3d6000fd5b505050506040513d601f19601f8201168201806040525081019061053b91906119de565b905087811161055c5760405162461bcd60e51b815260040161038490611c55565b600554604051632e1a7d4d60e01b81526001600160a01b0390911690632e1a7d4d9061058c908490600401611bbb565b600060405180830381600087803b1580156105a657600080fd5b505af11580156105ba573d6000803e3d6000fd5b505050506105c885826112d5565b50979650505050505050565b6000620f42406105e261040f565b8302816105eb57fe5b049392505050565b6000546001600160a01b0316331461061d5760405162461bcd60e51b815260040161038490611d2f565b80620f42408111156106415760405162461bcd60e51b815260040161038490611c7f565b6000546001600160a01b0316331461066b5760405162461bcd60e51b815260040161038490611d2f565b60048290556040517fa860f38a78c14a7c9346741af37f17369e3bec344fd665e71af7783e5131ef41906106a0908490611bbb565b60405180910390a15050565b6001600160a01b03811660009081526002602052604081205460ff166106d45750600061075f565b6003546001600160a01b0316631604c1746106ee846113c9565b846040518363ffffffff1660e01b815260040161070c929190611d4f565b60206040518083038186803b15801561072457600080fd5b505afa158015610738573d6000803e3d6000fd5b505050506040513d601f19601f8201168201806040525081019061075c91906119de565b90505b919050565b6060600284146107865760405162461bcd60e51b815260040161038490611cc3565b604080516001808252818301909252600091602080830190803683370190505090506107f8868660008181106107b857fe5b90506020020160208101906107cd9190611917565b89888860018181106107db57fe5b90506020020160208101906107f09190611917565b8a3389610b98565b8160008151811061080557fe5b6020908102919091010152979650505050505050565b6005546001600160a01b031681565b6000546001600160a01b031633146108545760405162461bcd60e51b815260040161038490611d2f565b816001600160a01b03811661087b5760405162461bcd60e51b815260040161038490611c9e565b6001600160a01b03831660009081526002602052604090819020805460ff19166001850160ff16179055517f05628179bba96c8e08865fb3e2d47bcb1ce8e918770406baac2937689b5acc00906108d59085908590611b5b565b60405180910390a1505050565b6000546001600160a01b0316331461090c5760405162461bcd60e51b815260040161038490611d2f565b6001600160a01b0381166109325760405162461bcd60e51b815260040161038490611bc4565b600580546001600160a01b0319166001600160a01b0383811691909117918290556040517f847de059166761e95b77a6dc5e67f14233dbb83e6d35b5a3b45a7288e1248a0b92610404921690611ae4565b6001546001600160a01b031681565b60026020526000908152604090205460ff1681565b60055460609034906109c2906001600160a01b0316826112d5565b60408051600180825281830190925260009160208083019080368337019050506005549091506107f8906001600160a01b0316838989600081610a0157fe5b9050602002016020810190610a169190611917565b8b308a610b98565b6000546001600160a01b031681565b60045481565b600080610a3f846113c9565b600354604051630d0dfcf760e01b81529192506000916001600160a01b0390911690630d0dfcf790610a7990859089908690600401611d66565b60206040518083038186803b158015610a9157600080fd5b505afa158015610aa5573d6000803e3d6000fd5b505050506040513d601f19601f82011682018060405250810190610ac991906119de565b905080620f42400384620f42400281610ade57fe5b0495945050505050565b6000546001600160a01b03163314610b125760405162461bcd60e51b815260040161038490611d2f565b6001600160a01b038116610b385760405162461bcd60e51b815260040161038490611bc4565b600380546001600160a01b0319166001600160a01b0383811691909117918290556040517f138356914e213daaec7b817cbd8bb99fbde1c15ac65b6f0d4a153078a5ad342592610404921690611ae4565b6003546001600160a01b031681565b6000808611610bb95760405162461bcd60e51b815260040161038490611d05565b6001600160a01b0383163014610bd557610bd58784308961144f565b6000610be188886105d4565b9050610c7c88600360009054906101000a90046001600160a01b03166001600160a01b031663ce6a33806040518163ffffffff1660e01b815260040160206040518083038186803b158015610c3557600080fd5b505afa158015610c49573d6000803e3d6000fd5b505050506040513d601f19601f82011682018060405250810190610c6d919061193a565b610c778b8b6105d4565b6115a7565b600354604051636eb1769f60e11b8152600019916001600160a01b03808c169263dd62ed3e92610cb3923092911690600401611af8565b60206040518083038186803b158015610ccb57600080fd5b505afa158015610cdf573d6000803e3d6000fd5b505050506040513d601f19601f82011682018060405250810190610d0391906119de565b1015610d935760035460405163095ea7b360e01b81526001600160a01b038a81169263095ea7b392610d3f929091169060001990600401611b42565b602060405180830381600087803b158015610d5957600080fd5b505af1158015610d6d573d6000803e3d6000fd5b505050506040513d601f19601f82011682018060405250810190610d9191906119be565b505b604080518082018252600a815269030b6b7bab73a24b71d160b51b602082015290516370a0823160e01b8152610e3891906001600160a01b038b16906370a0823190610de3903090600401611ae4565b60206040518083038186803b158015610dfb57600080fd5b505afa158015610e0f573d6000803e3d6000fd5b505050506040513d601f19601f82011682018060405250810190610e3391906119de565b6116f5565b6003546040516370a0823160e01b81526001600160a01b0391821691630dce2a119130918c16906370a0823190610e73908490600401611ae4565b60206040518083038186803b158015610e8b57600080fd5b505afa158015610e9f573d6000803e3d6000fd5b505050506040513d601f19601f82011682018060405250810190610ec391906119de565b610ecc8c6113c9565b60008d6040518663ffffffff1660e01b8152600401610eef959493929190611b12565b600060405180830381600087803b158015610f0957600080fd5b505af1158015610f1d573d6000803e3d6000fd5b50506003546040516370a0823160e01b8152600093506001600160a01b0390911691506370a0823190610f54903090600401611ae4565b60206040518083038186803b158015610f6c57600080fd5b505afa158015610f80573d6000803e3d6000fd5b505050506040513d601f19601f82011682018060405250810190610fa491906119de565b9050610fd46040518060400160405280600c81526020016b03ab9b23620b6b7bab73a1d160a51b815250826116f5565b6003546001600160a01b031663a9fae5fd3083610ff08b6113c9565b8a8c6040518663ffffffff1660e01b8152600401611012959493929190611b12565b600060405180830381600087803b15801561102c57600080fd5b505af1158015611040573d6000803e3d6000fd5b50506040516370a0823160e01b8152600092506001600160a01b038a1691506370a0823190611073903090600401611ae4565b60206040518083038186803b15801561108b57600080fd5b505afa15801561109f573d6000803e3d6000fd5b505050506040513d601f19601f820116820180604052508101906110c391906119de565b90506110f06040518060400160405280600981526020016803bb13a31a130b61d160bd1b815250826116f5565b6000611172898a6001600160a01b03166370a08231306040518263ffffffff1660e01b81526004016111229190611ae4565b60206040518083038186803b15801561113a57600080fd5b505afa15801561114e573d6000803e3d6000fd5b505050506040513d601f19601f820116820180604052508101906101bf91906119de565b905061120489600360009054906101000a90046001600160a01b03166001600160a01b031663ce6a33806040518163ffffffff1660e01b815260040160206040518083038186803b1580156111c657600080fd5b505afa1580156111da573d6000803e3d6000fd5b505050506040513d601f19601f820116820180604052508101906111fe919061193a565b836115a7565b6040516370a0823160e01b81526000906001600160a01b038b16906370a0823190611233903090600401611ae4565b60206040518083038186803b15801561124b57600080fd5b505afa15801561125f573d6000803e3d6000fd5b505050506040513d601f19601f8201168201806040525081019061128391906119de565b9050888110156112a55760405162461bcd60e51b815260040161038490611c1e565b6112b08a88836115a7565b6003546112c6906001600160a01b0316886117a7565b9b9a5050505050505050505050565b604080516000808252602082019092526001600160a01b0384169083906040518082805190602001908083835b602083106113215780518252601f199092019160209182019101611302565b6001836020036101000a03801982511681845116808217855250505050505090500191505060006040518083038185875af1925050503d8060008114611383576040519150601f19603f3d011682016040523d82523d6000602084013e611388565b606091505b50509050806113c4576040805162461bcd60e51b815260206004820152600360248201526253544560e81b604482015290519081900360640190fd5b505050565b60006001600160a01b0382166113f15760405162461bcd60e51b815260040161038490611c9e565b6001600160a01b03821660009081526002602052604090205460ff166114295760405162461bcd60e51b815260040161038490611be7565b506001600160a01b031660009081526002602052604090205460ff908116600019011690565b604080516001600160a01b0385811660248301528481166044830152606480830185905283518084039091018152608490920183526020820180516001600160e01b03166323b872dd60e01b178152925182516000948594938a169392918291908083835b602083106114d35780518252601f1990920191602091820191016114b4565b6001836020036101000a0380198251168184511680821785525050505050509050019150506000604051808303816000865af19150503d8060008114611535576040519150601f19603f3d011682016040523d82523d6000602084013e61153a565b606091505b5091509150818015611568575080511580611568575080806020019051602081101561156557600080fd5b50515b61159f576040805162461bcd60e51b815260206004820152600360248201526229aa2360e91b604482015290519081900360640190fd5b505050505050565b604080516001600160a01b038481166024830152604480830185905283518084039091018152606490920183526020820180516001600160e01b031663a9059cbb60e01b1781529251825160009485949389169392918291908083835b602083106116235780518252601f199092019160209182019101611604565b6001836020036101000a0380198251168184511680821785525050505050509050019150506000604051808303816000865af19150503d8060008114611685576040519150601f19603f3d011682016040523d82523d6000602084013e61168a565b606091505b50915091508180156116b85750805115806116b857508080602001905160208110156116b557600080fd5b50515b6116ee576040805162461bcd60e51b815260206004820152600260248201526114d560f21b604482015290519081900360640190fd5b5050505050565b6117a382826040516024018080602001838152602001828103825284818151815260200191508051906020019080838360005b83811015611740578181015183820152602001611728565b50505050905090810190601f16801561176d5780820380516001836020036101000a031916815260200191505b5060408051601f198184030181529190526020810180516001600160e01b03166309710a9d60e41b17905293506118ad92505050565b5050565b6040516370a0823160e01b81526000906001600160a01b038416906370a08231906117d6903090600401611ae4565b60206040518083038186803b1580156117ee57600080fd5b505afa158015611802573d6000803e3d6000fd5b505050506040513d601f19601f8201168201806040525081019061182691906119de565b11156117a3576117a38282846001600160a01b03166370a08231306040518263ffffffff1660e01b815260040161185d9190611ae4565b60206040518083038186803b15801561187557600080fd5b505afa158015611889573d6000803e3d6000fd5b505050506040513d601f19601f82011682018060405250810190610c7791906119de565b80516a636f6e736f6c652e6c6f67602083016000808483855afa5050505050565b60008083601f8401126118df578182fd5b50813567ffffffffffffffff8111156118f6578182fd5b602083019150836020808302850101111561191057600080fd5b9250929050565b600060208284031215611928578081fd5b813561193381611d95565b9392505050565b60006020828403121561194b578081fd5b815161193381611d95565b60008060408385031215611968578081fd5b823561197381611d95565b946020939093013593505050565b60008060408385031215611993578182fd5b823561199e81611d95565b9150602083013560ff811681146119b3578182fd5b809150509250929050565b6000602082840312156119cf578081fd5b81518015158114611933578182fd5b6000602082840312156119ef578081fd5b5051919050565b600060208284031215611a07578081fd5b5035919050565b600080600080600060808688031215611a25578081fd5b85359450602086013567ffffffffffffffff811115611a42578182fd5b611a4e888289016118ce565b9095509350506040860135611a6281611d95565b949793965091946060013592915050565b60008060008060008060a08789031215611a8b578081fd5b8635955060208701359450604087013567ffffffffffffffff811115611aaf578182fd5b611abb89828a016118ce565b9095509350506060870135611acf81611d95565b80925050608087013590509295509295509295565b6001600160a01b0391909116815260200190565b6001600160a01b0392831681529116602082015260400190565b6001600160a01b039586168152602081019490945260408401929092526060830152909116608082015260a00190565b6001600160a01b03929092168252602082015260400190565b6001600160a01b0392909216825260ff16602082015260400190565b6020808252825182820181905260009190848201906040850190845b81811015611baf57835183529284019291840191600101611b93565b50909695505050505050565b90815260200190565b60208082526009908201526821206164647265737360b81b604082015260600190565b60208082526018908201527f436f6c6c61746572616c206e6f7420737570706f727465640000000000000000604082015260600190565b60208082526018908201527f21206e6574436f6c6c61746572616c546f4765744261636b0000000000000000604082015260600190565b60208082526010908201526f109020b6b7bab73a1027baba1026b4b760811b604082015260600190565b602080825260059082015264216665657360d81b604082015260600190565b6020808252600b908201526a0858dbdb1b185d195c985b60aa1b604082015260600190565b60208082526022908201527f21204d756c74692d686f702073776170206e6f7420737570706f727465642079604082015261195d60f21b606082015260800190565b60208082526010908201526f08481d1bdad95b925b88185b5bdd5b9d60821b604082015260600190565b60208082526006908201526510b7bbb732b960d11b604082015260600190565b9182526001600160a01b0316602082015260400190565b9283526001600160a01b039190911660208301521515604082015260600190565b60ff91909116815260200190565b6001600160a01b0381168114611daa57600080fd5b5056fea2646970667358221220e8a51ce348e03a05ade2577b0796f0ab771aeb722e1eda129ae380d6c6a71bfd64736f6c63430007060033",
        "linkReferences": {}
    },
    "methodIdentifiers": {
        "collateralToDexIndex(address)": "6ff8e4f8",
        "getAdjustedOutputAmount(address,uint256)": "b3b54d75",
        "getMaxOutput(address)": "2f309177",
        "getProtocolFeesCoeffTokenIn()": "70873374",
        "getProtocolFeesCoeffTokenOut()": "13ea02dd",
        "getProtocolFeesTokenIn(address,uint256)": "1d3b13cb",
        "getProtocolFeesTokenOut(address,uint256)": "25a1fe6a",
        "lemmaRouter()": "6a12ccbf",
        "lemmaSwapFees()": "ad7bb9dd",
        "owner()": "8da5cb5b",
        "setCollateralToDexIndex(address,uint8)": "498be97d",
        "setLemmaSwapFees(uint256)": "2c05316a",
        "setOwner(address)": "13af4035",
        "setUSDL(address)": "b3d85167",
        "setWETH(address)": "5b769f3c",
        "swapExactETHForTokens(uint256,address[],address,uint256)": "7ff36ab5",
        "swapExactTokensForETH(uint256,uint256,address[],address,uint256)": "18cbafe5",
        "swapExactTokensForTokens(uint256,uint256,address[],address,uint256)": "38ed1739",
        "usdl()": "f073658a",
        "weth()": "3fc8cef3"
    },
    "id": 18
}